:100000000C9456000C9473000C9473000C947300C1
:100010000C9473000C9473000C9473000C94F00314
:100020000C9473000C9415040C9473000C947300DE
:100030000C9473000C9473000C9473000C94730074
:100040000C9473000C9473000C9473000C94730064
:100050000C9473000C9473000C9473000C94730054
:100060000C9473000C9473000C9473000C94730044
:100070000C9473000C9473000C9473000C94730034
:100080000C9473000C9473000C9473000C94730024
:100090000C9473000C9473000C9473000C94730014
:1000A0000C9473000C9497030C94730011241FBEDE
:1000B000CFEFDAE0DEBFCDBF12E0A0E0B1E0EEEFBF
:1000C000FDE002C005900D92A030B107D9F722E003
:1000D000A0E0B2E001C01D92AE30B207E1F70E948D
:1000E00012020C94FD060C94000026982598229884
:1000F000219808952E9A08952E9808952D9A08957E
:100100002D9808952A9A08952A980895299A08956D
:10011000299808953F9A0895479A08954798089511
:10012000CF93DF93EC010E946403882339F0888128
:1001300099818C33910514F401960AC00E949203B0
:10014000882341F088819981181619061CF40197BB
:1001500099838883DF91CF910895CF93DF93262FE2
:100160006AE070E00E941005D62FC82F283719F4D6
:1001700060E080E004C0293721F460E081E00E9463
:100180003E048D2F0E94AB048C2FDF91CF910C94F5
:10019000AB044F925F926F927F928F929F92AF9239
:1001A000BF92CF92DF92EF92FF920F931F93CF9364
:1001B000DF93CDB7DEB72E970FB6F894DEBF0FBE34
:1001C000CDBF69877A878B879C874D870E94E7031D
:1001D00069837A838B839C830E94DE036D837E8395
:1001E0008F8398872D852E8700E010E00F5F1F4FCB
:1001F0000436110510F000E010E03D85832F330F29
:10020000990B0817190718F40E947A0002C00E947F
:100210007C004E85842F440F990B0817190718F49A
:100220000E947E0002C00E9480000E94DE036B01DB
:100230007C012D813E814F815885C21AD30AE40A80
:10024000F50A0E94E7032B013C0129813A814B8189
:100250005C81421A530A640A750AC701B6010E94FA
:10026000D9052CE53FE842E85FE30E9490066B0168
:100270007C01C301B2010E94D9054B015C0120E061
:1002800030E0A901C701B6010E943905A50194011A
:100290000E94A50587FF0AC03E8532363CF44D8595
:1002A000433024F03D5F3E8743504D87A5019401C4
:1002B000C701B6010E948B06181654F45D855236AC
:1002C0003CF48E85833024F05D5F5D8783508E879C
:1002D00095E39A95F1F7000029853A854B855C8571
:1002E000421653066406750608F480CF0E9480000B
:1002F0002E960FB6F894DEBF0FBECDBFDF91CF9123
:100300001F910F91FF90EF90DF90CF90BF90AF9033
:100310009F908F907F906F905F904F900C947C0097
:10032000CF93DF93C82FD62F0E9488000E948400AD
:100330008CEDC89FB0011124072E000C880B990B7F
:100340004D2FDF91CF910C94C9001F93CF93DF9372
:10035000EC01162F0E9488000E948200BE0180E0FE
:1003600090E00E94D90520E030E040EF50E40E9488
:1003700090060E94AA05412FDF91CF911F910C9406
:10038000C9001F93CF93DF93EC01162F0E948600C4
:100390000E948400BE0180E090E00E94D90520E028
:1003A00030E040EF50E40E9490060E94AA05412FE1
:1003B000DF91CF911F910C94C9000F931F93CF939E
:1003C000DF938E31910524F0C2EEC80F01E004C026
:1003D0009EE1C92FC81B00E06E31710524F0D2EEFA
:1003E000D60F11E009C08EE1D82FD61B69E184EB4E
:1003F00090E00E94A50110E069E18D2F0E9490011C
:1004000069E18AE590E0011719F00E94A50102C098
:100410000E94C10169E18C2FDF91CF911F910F9153
:100420000C949001CF93DF9300D000D0CDB7DEB70E
:100430008EE1E82EF12C0E9403050E9447040E94E1
:100440008A000E947500FC82EB82FA82E98260E0F9
:1004500080E00E943E0468E78B819C810E94AD0091
:1004600060E081E00E943E0469E789819A810E94F0
:10047000AD002FEF83ED90E3215080409040E1F7F5
:1004800000C000000E946903882389F068E78B811F
:100490009C810E94AD00CE0103960E949000EFEF78
:1004A000F1EE24E0E150F0402040E1F7E9CF0E9476
:1004B0007C03882349F08FEF93EDE0E38150904077
:1004C000E040E1F700C000000E946903882389F042
:1004D00069E789819A810E94AD00CE0101960E9450
:1004E0009000FFEF21EE84E0F15020408040E1F7E2
:1004F000E9CF68E78B819C810E94AD0069E7898123
:100500009A810E94AD0015E0612F6195660F665FCC
:1005100083E00E943E04812F0E94AB0484E6EFE357
:10052000FCE93197F1F700C000008150C1F711508C
:1005300059F70E948C0069817A818B819C810E948D
:10054000DD010E948E000E947C038823E1F373CFBB
:1005500080E091E0909387008093860082EA809308
:1005600080008AE18093810008958FEF8093D1000D
:1005700084E08093720085E08093C100089590E14B
:1005800090936A0080E48DBB81E080936800909333
:100590006B008BBB089585B18E7F85B9089585B1B9
:1005A000816085B908953BB1307290E813C0292F5E
:1005B000282321F02BB120622BB903C02BB12F7D52
:1005C0002BB900002BB1277F2BB900002BB128607D
:1005D0002BB996959111EBCF332321F08BB180622B
:1005E0008BB908958BB18F7D8BB90895CF93DF932D
:1005F000D82FC5B10E94CF028D2F0E94D302C0FF19
:1006000004C085B1816085B903C085B18E7F85B98D
:10061000DF91CF910895CF93DF93D82FC5B10E947A
:10062000CB028D2F0E94D302C0FF04C085B1816030
:1006300085B903C085B18E7F85B9DF91CF910895CB
:10064000CF93C62F0E940B038C2F0E940B03CF91D8
:100650000895883018F4806B0E940B030895CF939F
:10066000C82F823818F48F700E940B038C2F82954C
:100670008F7080610E940B03CF91089580910002DA
:100680008F5F809300028D3059F4109200028091A8
:100690000102833011F08F5F01C080E0809301027E
:1006A000089594B125B184B1877F84B985B18860FC
:1006B00085B98AE18A95F1F700C083B125B994B96B
:1006C00083FB882780F908950E94510391E08927D0
:1006D00008959AB12BB18AB18F7D8AB98BB18062AE
:1006E0008BB98AE18A95F1F700C089B12BB99AB923
:1006F00085FB882780F908950E94690391E0892786
:10070000089594B125B184B18E7F84B985B181609B
:1007100085B98AE18A95F1F700C083B125B994B90A
:10072000817008950E94810391E0892708951F92A6
:100730000F920FB60F9211248F939F93AF93BF9395
:1007400080910A0290910B02A0910C02B0910D02CF
:100750009F5FAF4FBF4F80930A0290930B02A0930D
:100760000C02B0930D02BF91AF919F918F910F90AA
:100770000FBE0F901F901895F8942091BE003091F5
:10078000BF0080910A0290910B02A0910C02B091DF
:100790000D02BC01CD01620F731F811D911D789464
:1007A000089583ED90E0909399008093980080E401
:1007B0008093900089E080939100089560910202F7
:1007C0007091030280910402909105020895609156
:1007D0000602709107028091080290910902089523
:1007E0001F920F920FB60F9211248F939F93AF9386
:1007F000BF938091020290910302A0910402B091F4
:1008000005020196A11DB11D80930202909303027F
:10081000A0930402B0930502BF91AF919F918F9175
:100820000F900FBE0F901F9018951F920F920FB64A
:100830000F9211248F939F93AF93BF9380916B007E
:1008400084FF13C08091060290910702A0910802D4
:10085000B09109020196A11DB11D809306029093EB
:100860000702A0930802B0930902BF91AF919F9134
:100870008F910F900FBE0F901F901895843010F439
:10088000809301026D3010F4609300020895CF93BD
:10089000DF93D0E00FC08D2F0E94290380E00E94DB
:1008A0002F03C0E004C080E00E94F602CF5FC23890
:1008B000D0F3DF5FD83078F310920102109200027B
:1008C000DF91CF9108958BB1837D8BB98AB18C6212
:1008D0008AB985E38A95F1F700008BB18C608BB9FA
:1008E0008AE08A95F1F700C081EA0E940B0360E07C
:1008F00083ED0E94200388EC0E940B0380E40E9499
:100900000B038FEA0E940B030E9447040895CF93C4
:10091000DF93D0E019C080910102880F8D0F0E94F3
:10092000290380910002880F982F990F990F890F42
:100930008E5F0E942F03C0E004C080E00E94F60298
:10094000CF5FC830D0F3DF5FD23028F30E943E0380
:10095000DF91CF910895FF920F931F93CF93DF9371
:10096000CDB7DEB7DA950FB6F894DEBF0FBECDBFB8
:1009700090E0E0E0F1E0DE01119601900D929A9591
:10098000E1F78F70F82E00E02EC080910102880FF1
:10099000800F0E94290380910002880F982F990FE1
:1009A000990F890F8E5F0E942F0310E019C0E02F6E
:1009B000F0E0EE0FFF1FEE0FFF1FEE0FFF1FE10F26
:1009C000F11D81E090E08C0F9D1F20E1F29E800DD3
:1009D000911D1124E80FF91F80810E94F6021F5F0C
:1009E000183028F30F5F023080F20E943E03D39547
:1009F0000FB6F894DEBF0FBECDBFDF91CF911F9130
:100A00000F91FF900895F8940E94A8020E94B502E9
:100A10000E94D1030E94BF020E946304789408954B
:100A200097FB072E16F4009407D077FD09D00E949B
:100A3000240507FC05D03EF4909581959F4F0895BD
:100A4000709561957F4F0895AA1BBB1B51E107C0AC
:100A5000AA1FBB1FA617B70710F0A61BB70B881F4E
:100A6000991F5A95A9F780959095BC01CD010895DD
:100A70005058BB27AA270E9450050C9451060E948B
:100A8000430638F00E944A0620F039F49F3F19F4DB
:100A900026F40C9440060EF4E095E7FB0C943A061D
:100AA000E92F0E94620658F3BA176207730784079A
:100AB000950720F079F4A6F50C9484060EF4E095E1
:100AC0000B2EBA2FA02D0B01B90190010C01CA0108
:100AD000A0011124FF27591B99F0593F50F4503EB3
:100AE00068F11A16F040A22F232F342F4427585FA5
:100AF000F3CF469537952795A795F0405395C9F7BD
:100B00007EF41F16BA0B620B730B840BBAF0915074
:100B1000A1F0FF0FBB1F661F771F881FC2F70EC013
:100B2000BA0F621F731F841F48F4879577956795E6
:100B3000B795F7959E3F08F0B0CF9395880F08F0D2
:100B40009927EE0F9795879508950E94160608F449
:100B500081E008950E946A0688F09F5798F0B92FA7
:100B60009927B751B0F0E1F0660F771F881F991FE2
:100B70001AF0BA95C9F714C0B13091F00E948406FA
:100B8000B1E008950C948406672F782F8827B85F0A
:100B900039F0B93FCCF3869577956795B395D9F73A
:100BA0003EF490958095709561957F4F8F4F9F4F44
:100BB0000895E89409C097FB3EF490958095709550
:100BC00061957F4F8F4F9F4F9923A9F0F92F96E999
:100BD000BB279395F695879577956795B795F1110E
:100BE000F8CFFAF4BB0F11F460FF1BC06F5F7F4FAB
:100BF0008F4F9F4F16C0882311F096E911C07723BD
:100C000021F09EE8872F762F05C0662371F096E8C5
:100C1000862F70E060E02AF09A95660F771F881F94
:100C2000DAF7880F9695879597F90895990F000838
:100C3000550FAA0BE0E8FEEF16161706E807F907AE
:100C4000C0F012161306E407F50798F0621B730B49
:100C5000840B950B39F40A2661F0232B242B252BCA
:100C600021F408950A2609F4A140A6958FEF811D6D
:100C7000811D089597F99F6780E870E060E008950E
:100C80009FEF80EC089500240A94161617061806A4
:100C90000906089500240A94121613061406050680
:100CA0000895092E0394000C11F4882352F0BB0F11
:100CB00040F4BF2B11F460FF04C06F5F7F4F8F4F74
:100CC0009F4F089557FD9058440F551F59F05F3FAF
:100CD00071F04795880F97FB991F61F09F3F79F05E
:100CE00087950895121613061406551FF2CF4695E0
:100CF000F1DF08C0161617061806991FF1CF869562
:100D00007105610508940895E894BB276627772745
:100D1000CB0197F908950E94160608F48FEF089505
:100D20000E94A3060C9451060E94430638F00E94CC
:100D30004A0620F0952311F00C943A060C944006D4
:100D400011240C9485060E94620670F3959FC1F3EE
:100D5000950F50E0551F629FF001729FBB27F00D69
:100D6000B11D639FAA27F00DB11DAA1F649F6627BE
:100D7000B00DA11D661F829F2227B00DA11D621F0D
:100D8000739FB00DA11D621F839FA00D611D221FC7
:100D9000749F3327A00D611D231F849F600D211DAB
:100DA000822F762F6A2F11249F5750409AF0F1F02E
:100DB00088234AF0EE0FFF1FBB1F661F771F881F97
:100DC00091505040A9F79E3F510580F00C943A068F
:100DD0000C9485065F3FE4F3983ED4F386957795AF
:100DE0006795B795F795E7959F5FC1F7FE2B880F3D
:0E0DF000911D9695879597F90895F894FFCF79
:100DFE00FCFE0606C636FEFC3F7F6E6360607F3FDC
:100E0E00000008FCFE0000000040607F7F60400094
:100E1E000C0E06068686FEFC7C7E67636161616051
:100E2E000C0E868686C6FE7C0060616161733F1F74
:100E3E0080C0603018FCFE000103030303FFFF03B4
:100E4E00FEFE8686868686060061616161617F3F51
:100E5E00FCFE8686868686043F7F616161617F3FE8
:100E6E000606060686E67E1E0060781E0701000056
:100E7E007CFE86868686FE7C3E7F616161617F3E5A
:100E8E007CFE86868686FEFC0061616161713F1F75
:100E9E00FCFE86868686FEFC7F7F010101017F7F38
:100EAE0006FEFE8686C6FC78607F7F6161633F1E0C
:100EBE00FCFE060606060E0C1F7F6060606030109A
:100ECE00FEFE0606060EFCF87F7F606060303F1F58
:100EDE00FEFE8686868686867F7F616161616161A0
:100EEE00FEFE8686868686867F7F010101010101D0
:00000001FF
