:100000000C9456000C9473000C9473000C947300C1
:100010000C9473000C9473000C9473000C942D04D6
:100020000C9473000C9452040C9473000C947300A1
:100030000C9473000C9473000C9473000C94730074
:100040000C9473000C9473000C9473000C94730064
:100050000C9473000C9473000C9473000C94730054
:100060000C9473000C9473000C9473000C94730044
:100070000C9473000C9473000C9473000C94730034
:100080000C9473000C9473000C9473000C94730024
:100090000C9473000C9473000C9473000C94730014
:1000A0000C9473000C94D4030C94730011241FBEA1
:1000B000CFEFDAE0DEBFCDBF12E0A0E0B1E0E8E7CD
:1000C000FEE002C005900D92A030B107D9F722E002
:1000D000A0E0B2E001C01D92AE30B207E1F70E948D
:1000E0004F020C943A070C94000026982598229809
:1000F000219808952E9A08952E9808952D9A08957E
:100100002D9808952A9A08952A980895299A08956D
:10011000299808953F9A0895479A08954798089511
:10012000CF93DF93EC010E94A103882339F08881EB
:1001300099818C33910514F401960AC00E94CF0373
:10014000882341F088819981181619061CF40197BB
:1001500099838883DF91CF910895CF93DF93262FE2
:100160006AE070E00E944D05D62FC82F283719F499
:1001700060E080E004C0293721F460E081E00E9463
:100180007B048D2F0E94E8048C2FDF91CF910C947B
:10019000E8044F925F926F927F928F929F92AF92FC
:1001A000BF92CF92DF92EF92FF920F931F93CF9364
:1001B000DF93CDB7DEB762970FB6F894DEBF0FBE00
:1001C000CDBF69877A878B879C87498B0D871E8770
:1001D0002F87388B0E94240469837A838B839C83C6
:1001E0000E941B046D837E838F83988729892A8BC5
:1001F00000E010E00F5F1F4F0436110510F000E023
:1002000010E03989832F330F990B0817190718F459
:100210000E947A0002C00E947C004A89842F440F09
:10022000990B0817190718F40E947E0002C00E945B
:1002300080000E941B046B017C012D813E814F8157
:100240005885C21AD30AE40AF50A0E9424042B0135
:100250003C0129813A814B815C81421A530A640A2C
:10026000750AC701B6010E9416062D853E854F8589
:1002700058890E94CD066B017C01C301B2010E9426
:1002800016064B015C0120E030E0A901C701B60170
:100290000E947605A50194010E94E20587FF0AC02D
:1002A0003A8932363CF44989433024F03D5F3A8B39
:1002B0004350498BA5019401C701B6010E94C806AD
:1002C000181654F4598952363CF48A89833024F044
:1002D0005D5F598B83508A8B95E39A95F1F7000007
:1002E00029853A854B855C8542165306640675065A
:1002F00008F480CF0E94800062960FB6F894DEBFAB
:100300000FBECDBFDF91CF911F910F91FF90EF9066
:10031000DF90CF90BF90AF909F908F907F906F9025
:100320005F904F900C947C000F931F93CF93DF93BB
:10033000C82FD62F0E9488000E9484006C2F70E086
:1003400080E090E00E94180620E030E849E453E4A1
:100350000E94CD060E94E70502E410E62DE73FE388
:100360004D2F0E94C900DF91CF911F910F910895E9
:100370000F931F93CF93DF93C82FD62F0E94860031
:100380000E9482006C2F70E080E090E00E941806CE
:1003900020E030E849E453E40E94CD060E94E705DE
:1003A0000FED1FE421E83FE34D2F0E94C900DF91CC
:1003B000CF911F910F910895FF920F931F93CF93A9
:1003C000DF93EC01F62E0E9488000E948200BE019D
:1003D00080E090E00E9416062EEB3FE948EF50E4E3
:1003E0000E94CD060E94E70502E410E62DE73FE3F8
:1003F0004F2D0E94C900DF91CF911F910F91FF9067
:100400000895FF920F931F93CF93DF93EC01F62E85
:100410000E9486000E948400BE0180E090E00E945D
:1004200016062EEB3FE948EF50E40E94CD060E94ED
:10043000E70502E410E62DE73FE34F2D0E94C900D7
:10044000DF91CF911F910F91FF900895CF93DF938C
:10045000EC01CB016EE18E31910524F08E510E94AA
:10046000940105C09EE1981B892F0E94B801CE31EE
:10047000D1053CF0CE516EE18AE590E00E94010288
:1004800008C08EE18C1BC82F6EE18AE590E00E94C7
:10049000DC016EE18C2FDF91CF910C949401CF930E
:1004A000DF9300D000D0CDB7DEB78EE1E82EF12C7F
:1004B0000E9440050E9484040E948A000E947500E8
:1004C000FC82EB82FA82E98260E080E00E947B0499
:1004D00068E78B819C810E94AD0060E081E00E9412
:1004E0007B0469E789819A810E94AD002FEF83ED3B
:1004F00090E3215080409040E1F700C000000E944E
:10050000A603882389F068E78B819C810E94AD0057
:10051000CE0103960E949000EFEFF1EE24E0E1504F
:10052000F0402040E1F7E9CF0E94B903882349F069
:100530008FEF93EDE0E381509040E040E1F700C0A1
:1005400000000E94A603882389F069E789819A81C7
:100550000E94AD00CE0101960E949000FFEF21EEB7
:1005600084E0F15020408040E1F7E9CF68E78B81DB
:100570009C810E94AD0069E789819A810E94AD004B
:1005800015E0612F6195660F665F83E00E947B0432
:10059000812F0E94E80484E6EFE3FCE93197F1F74C
:1005A00000C000008150C1F7115059F70E948C0023
:1005B00069817A818B819C810E9426020E948E0033
:1005C0000E94B9038823E1F373CF80E091E0909318
:1005D00087008093860082EA809380008AE180937E
:1005E000810008958FEF8093D10084E080937200A2
:1005F00085E08093C100089590E190936A0080E4C3
:100600008DBB81E08093680090936B008BBB089555
:1006100085B18E7F85B9089585B1816085B90895CA
:100620003BB1307290E813C0292F282321F02BB161
:1006300020622BB903C02BB12F7D2BB900002BB149
:10064000277F2BB900002BB128602BB9969591110B
:10065000EBCF332321F08BB180628BB908958BB13E
:100660008F7D8BB90895CF93DF93D82FC5B10E94AA
:100670000C038D2F0E941003C0FF04C085B1816060
:1006800085B903C085B18E7F85B9DF91CF9108957B
:10069000CF93DF93D82FC5B10E9408038D2F0E94FE
:1006A0001003C0FF04C085B1816085B903C085B166
:1006B0008E7F85B9DF91CF910895CF93C62F0E9489
:1006C00048038C2F0E944803CF910895883018F476
:1006D000806B0E9448030895CF93C82F823818F486
:1006E0008F700E9448038C2F82958F7080610E94CA
:1006F0004803CF910895809100028F5F809300029C
:100700008D3059F41092000280910102833011F073
:100710008F5F01C080E080930102089594B125B1FC
:1007200084B1877F84B985B1886085B98AE18A956B
:10073000F1F700C083B125B994B983FB882780F90C
:1007400008950E948E0391E0892708959AB12BB1F4
:100750008AB18F7D8AB98BB180628BB98AE18A9523
:10076000F1F700C089B12BB99AB985FB882780F9C8
:1007700008950E94A60391E08927089594B125B1B8
:1007800084B18E7F84B985B1816085B98AE18A950B
:10079000F1F700C083B125B994B9817008950E9422
:1007A000BE0391E0892708951F920F920FB60F9212
:1007B00011248F939F93AF93BF9380910A029091DE
:1007C0000B02A0910C02B0910D029F5FAF4FBF4F83
:1007D00080930A0290930B02A0930C02B0930D0237
:1007E000BF91AF919F918F910F900FBE0F901F906F
:1007F0001895F8942091BE003091BF0080910A02B4
:1008000090910B02A0910C02B0910D02BC01CD01A0
:10081000620F731F811D911D7894089583ED90E000
:10082000909399008093980080E48093900089E0F1
:10083000809391000895609102027091030280916B
:1008400004029091050208956091060270910702DA
:10085000809108029091090208951F920F920FB69D
:100860000F9211248F939F93AF93BF9380910202B5
:1008700090910302A0910402B09105020196A11D7E
:10088000B11D8093020290930302A0930402B093DF
:100890000502BF91AF919F918F910F900FBE0F9066
:1008A0001F9018951F920F920FB60F9211248F93DD
:1008B0009F93AF93BF9380916B0084FF13C080918F
:1008C000060290910702A0910802B09109020196D8
:1008D000A11DB11D8093060290930702A093080208
:1008E000B0930902BF91AF919F918F910F900FBE6E
:1008F0000F901F901895843010F4809301026D3092
:1009000010F4609300020895CF93DF93D0E00FC0FE
:100910008D2F0E94660380E00E946C03C0E004C03B
:1009200080E00E943303CF5FC238D0F3DF5FD8305E
:1009300078F31092010210920002DF91CF91089596
:100940008BB1837D8BB98AB18C628AB985E38A9534
:10095000F1F700008BB18C608BB98AE08A95F1F7D2
:1009600000C081EA0E94480360E083ED0E945D03BD
:1009700088EC0E94480380E40E9448038FEA0E94AA
:1009800048030E9484040895CF93DF93D0E019C0F8
:1009900080910102880F8D0F0E94660380910002F2
:1009A000880F982F990F990F890F8E5F0E946C0303
:1009B000C0E004C080E00E943303CF5FC830D0F3B2
:1009C000DF5FD23028F30E947B03DF91CF9108953F
:1009D000FF920F931F93CF93DF93CDB7DEB7DA95D6
:1009E0000FB6F894DEBF0FBECDBF90E0E0E0F1E0BF
:1009F000DE01119601900D929A95E1F78F70F82E15
:100A000000E02EC080910102880F800F0E946603D3
:100A100080910002880F982F990F990F890F8E5F90
:100A20000E946C0310E019C0E02FF0E0EE0FFF1FF2
:100A3000EE0FFF1FEE0FFF1FE10FF11D81E090E0B1
:100A40008C0F9D1F20E1F29E800D911D1124E80F57
:100A5000F91F80810E9433031F5F183028F30F5F56
:100A6000023080F20E947B03D3950FB6F894DEBF6C
:100A70000FBECDBFDF91CF911F910F91FF900895D1
:100A8000F8940E94E5020E94F2020E940E040E9465
:100A9000FC020E94A0047894089597FB072E16F498
:100AA000009407D077FD09D00E94610507FC05D0AE
:100AB0003EF4909581959F4F0895709561957F4F75
:100AC0000895AA1BBB1B51E107C0AA1FBB1FA61795
:100AD000B70710F0A61BB70B881F991F5A95A9F7E7
:100AE00080959095BC01CD0108955058BB27AA2749
:100AF0000E948D050C948E060E94800638F00E949C
:100B0000870620F039F49F3F19F426F40C947D06F3
:100B10000EF4E095E7FB0C947706E92F0E949F0600
:100B200058F3BA17620773078407950720F079F422
:100B3000A6F50C94C1060EF4E0950B2EBA2FA02D4D
:100B40000B01B90190010C01CA01A0011124FF277A
:100B5000591B99F0593F50F4503E68F11A16F04075
:100B6000A22F232F342F4427585FF3CF4695379574
:100B70002795A795F0405395C9F77EF41F16BA0B39
:100B8000620B730B840BBAF09150A1F0FF0FBB1FE7
:100B9000661F771F881FC2F70EC0BA0F621F731F30
:100BA000841F48F4879577956795B795F7959E3F8D
:100BB00008F0B0CF9395880F08F09927EE0F97951E
:100BC000879508950E94530608F481E008950E94D5
:100BD000A70688F09F5798F0B92F9927B751B0F022
:100BE000E1F0660F771F881F991F1AF0BA95C9F7B1
:100BF00014C0B13091F00E94C106B1E008950C9488
:100C0000C106672F782F8827B85F39F0B93FCCF33A
:100C1000869577956795B395D9F73EF4909580952D
:100C2000709561957F4F8F4F9F4F0895E89409C04D
:100C300097FB3EF490958095709561957F4F8F4F0F
:100C40009F4F9923A9F0F92F96E9BB279395F69525
:100C5000879577956795B795F111F8CFFAF4BB0FA3
:100C600011F460FF1BC06F5F7F4F8F4F9F4F16C007
:100C7000882311F096E911C0772321F09EE8872F91
:100C8000762F05C0662371F096E8862F70E060E04D
:100C90002AF09A95660F771F881FDAF7880F9695C6
:100CA000879597F90895990F0008550FAA0BE0E86A
:100CB000FEEF16161706E807F907C0F0121613061E
:100CC000E407F50798F0621B730B840B950B39F45E
:100CD0000A2661F0232B242B252B21F408950A26C4
:100CE00009F4A140A6958FEF811D811D089597F904
:100CF0009F6780E870E060E008959FEF80EC0895C2
:100D000000240A94161617061806090608950024EA
:100D10000A9412161306140605060895092E039464
:100D2000000C11F4882352F0BB0F40F4BF2B11F4D8
:100D300060FF04C06F5F7F4F8F4F9F4F089557FD37
:100D40009058440F551F59F05F3F71F04795880F39
:100D500097FB991F61F09F3F79F0879508951216D0
:100D600013061406551FF2CF4695F1DF08C016167C
:100D700017061806991FF1CF86957105610508942D
:100D80000895E894BB2766277727CB0197F9089544
:100D90000E94530608F48FEF08950E94E0060C9419
:100DA0008E060E94800638F00E94870620F0952368
:100DB00011F00C9477060C947D0611240C94C20655
:100DC0000E949F0670F3959FC1F3950F50E0551F49
:100DD000629FF001729FBB27F00DB11D639FAA2790
:100DE000F00DB11DAA1F649F6627B00DA11D661FDF
:100DF000829F2227B00DA11D621F739FB00DA11D00
:100E0000621F839FA00D611D221F749F3327A00DB9
:100E1000611D231F849F600D211D822F762F6A2F55
:100E200011249F5750409AF0F1F088234AF0EE0FBA
:100E3000FF1FBB1F661F771F881F91505040A9F7E7
:100E40009E3F510580F00C9477060C94C2065F3FDC
:100E5000E4F3983ED4F3869577956795B795F79523
:100E6000E7959F5FC1F7FE2B880F911D969587959B
:080E700097F90895F894FFCFF3
:100E7800FCFE0606C636FEFC3F7F6E6360607F3F61
:100E8800000008FCFE0000000040607F7F6040001A
:100E98000C0E06068686FEFC7C7E676361616160D7
:100EA8000C0E868686C6FE7C0060616161733F1FFA
:100EB80080C0603018FCFE000103030303FFFF033A
:100EC800FEFE8686868686060061616161617F3FD7
:100ED800FCFE8686868686043F7F616161617F3F6E
:100EE8000606060686E67E1E0060781E07010000DC
:100EF8007CFE86868686FE7C3E7F616161617F3EE0
:100F08007CFE86868686FEFC0061616161713F1FFA
:100F1800FCFE86868686FEFC7F7F010101017F7FBD
:100F280006FEFE8686C6FC78607F7F6161633F1E91
:100F3800FCFE060606060E0C1F7F6060606030101F
:100F4800FEFE0606060EFCF87F7F606060303F1FDD
:100F5800FEFE8686868686867F7F61616161616125
:100F6800FEFE8686868686867F7F01010101010155
:00000001FF
