:100000000C9456000C9473000C9473000C947300C1
:100010000C9473000C9473000C9473000C947C0289
:100020000C9473000C94A1020C9473000C94730054
:100030000C9473000C9473000C9473000C94730074
:100040000C9473000C9473000C9473000C94730064
:100050000C9473000C9473000C9473000C94730054
:100060000C9473000C9473000C9473000C94730044
:100070000C9473000C9473000C9473000C94730034
:100080000C9473000C9473000C9473000C94730024
:100090000C9473000C9473000C9473000C94730014
:1000A0000C9473000C9420020C94730011241FBE56
:1000B000CFEFDAE0DEBFCDBF12E0A0E0B1E0ECEBC5
:1000C000F8E002C005900D92AE30B107D9F722E0FA
:1000D000AEE0B2E001C01D92AC31B207E1F70E9480
:1000E00020040C945C040C94000054985C9A0895CD
:1000F00085988D9A08958198899A08950895EF9228
:10010000FF920F931F93CF9327982F9800E011E051
:10011000C0E0F801E190F1908F01B70180E00E940A
:1001200042018FE896E00197F1F700C000004C9B78
:10013000CF5F0E946C01E7E9F8E03197F1F700C06A
:100140000000B70181E00E9442018FE896E001972C
:10015000F1F700C000004C9BCF5F0E946C01E7E903
:10016000F8E03197F1F700C00000F1E00C301F0714
:1001700081F68C2FCF911F910F91FF90EF900895F2
:10018000EF92FF920F931F93CF9327982F9800E041
:1001900011E0C0E0F801E190F1908F01B70180E03B
:1001A0000E9442018FE896E00197F1F700C000003D
:1001B0007D9BCF5F0E946C01E7E9F8E03197F1F792
:1001C00000C00000B70181E00E9442018FE896E084
:1001D0000197F1F700C000007D9BCF5F0E946C018A
:1001E000E7E9F8E03197F1F700C00000F1E00C30EA
:1001F0001F0781F68C2FCF911F910F91FF90EF90E9
:100200000895EF92FF920F931F93CF9327982F9803
:1002100000E011E0C0E0F801E190F1908F01B7013A
:1002200080E00E9442018FE896E00197F1F700C05C
:100230000000799BCF5F0E946C01E7E9F8E03197FD
:10024000F1F700C00000B70181E00E9442018FE891
:1002500096E00197F1F700C00000799BCF5F0E9404
:100260006C01E7E9F8E03197F1F700C00000F1E038
:100270000C301F0781F68C2FCF911F910F91FF90AB
:10028000EF900895109271003E98469890E89093F0
:10029000900010929100909392003E9A882311F062
:1002A0008E9801C08E9A869A80910C0190910D01D2
:1002B0009093970080939600019790939500809378
:1002C0009400709399006093980082E88093900066
:1002D00089E180939100089546983E9A82E0809348
:1002E00090001092910008958E9A08958E98089526
:1002F0008FB190E09695879581700895AF92BF92E7
:10030000CF92DF92EF92FF920F931F93EE24FF2480
:100310008701F894A0900E02B0900F02C0901002D6
:10032000D09011026091BE007091BF007894799BCB
:10033000FECF7999FECFEE0CFF1C001F111FF89421
:1003400080910E0290910F02A0911002B0911102C3
:100350002091BE003091BF00789440E050E02A190F
:100360003B094C095D09280F391F4A1F5B1FCB0150
:10037000A0E0B0E0281B390B4A0B5B0B215D374036
:100380004040504040F081E090E0A0E0B0E0E82A3A
:10039000F92A0A2B1B2BD801C70180709070A0701E
:1003A00080509040A040BE4F09F0B3CFB701C801C4
:1003B0001F910F91FF90EF90DF90CF90BF90AF9083
:1003C000089534B125B123982B9A8AE18A95F1F7E3
:1003D00083B125B934B990E043E0969587954A9565
:1003E000E1F7817008950E94E10191E08927089565
:1003F0003AB12BB155985D9A8AE18A95F1F789B1A6
:100400002BB93AB990E055E0969587955A95E1F762
:10041000817008950E94F80191E08927089524B120
:1004200095B12098289A8AE18A95F1F783B195B918
:1004300024B9817008950E940F0291E089270895E0
:100440001F920F920FB60F9211248F939F93AF9329
:10045000BF9380910E0290910F02A0911002B09173
:10046000110280509F4FAF4FBF4F80930E02909369
:100470000F02A0931002B0931102BF91AF919F9110
:100480008F910F900FBE0F901F901895F894809148
:100490000E0290910F02A0911002B09111022091D2
:1004A000BE003091BF00789440E050E0280F391F23
:1004B0004A1F5B1FB901CA01089583ED90E0909334
:1004C00099008093980080E48093900089E0809365
:1004D00091000895609116027091170280911802A0
:1004E0009091190208956091120270911302809107
:1004F00014029091150208951F920F920FB60F9259
:1005000011248F939F93AF93BF9380911602909184
:100510001702A0911802B09119020196A11DB11DF8
:100520008093160290931702A0931802B0931902B9
:10053000BF91AF919F918F910F900FBE0F901F9021
:1005400018951F920F920FB60F9211248F939F93BD
:10055000AF93BF9380916B0084FF13C08091120210
:1005600090911302A0911402B09115020196A11D61
:10057000B11D8093120290931302A0931402B093C2
:100580001502BF91AF919F918F910F900FBE0F9069
:100590001F901895582F4BB190E820E030E0892F3C
:1005A000852311F05D9A01C05D9800005B98000002
:1005B0005B9A96952F5F3F4F2830310581F745FFB5
:1005C00002C05D9A08955D9808951F9315B1289A09
:1005D0000E94CA0210FF02C0289A01C028981F91E9
:1005E00008951F9315B128980E94CA0210FF02C0F7
:1005F000289A01C028981F910895843010F48093A0
:100600001A026D3010F460931B0208951F93182F87
:10061000823818F48F700E94F10212951F70812F9A
:1006200080610E94F1021F9108950F931F9300E0D3
:10063000802F806B0E94F10280E00E94060310E090
:1006400080E00E94E5021F5F1238D1F70F5F08308B
:1006500079F710921A0210921B021F910F910895C0
:10066000CF92DF92EF92FF920F931F93F0901A02B6
:10067000E0901B0285E0E89EC00111240196C82E7F
:10068000CC0C0F2D000F62E0D62ED00E083020F4D7
:10069000802F806B0E94F1028C2D0E94060310E0D7
:1006A00080E00E94E5021F5F1830D1F70F5F0D1543
:1006B00069F78E2D8F5F80931B028D3059F4109255
:1006C0001B0283E0F81611F480E002C08F2D8F5FCB
:1006D00080931A021F910F91FF90EF90DF90CF90BF
:1006E00008959F92AF92BF92CF92DF92EF92FF92C6
:1006F0000F931F93CF93DF938F70B0901A020B2D3F
:10070000000FA0901B0225E0A29E900111242F5FF4
:100710003F4F922E990CEE24FF24C82EDD2474E066
:10072000CC0CDD1C7A95E1F7083020F4802F806B2B
:100730000E94F102892D0E940603E701CC0DDD1D08
:10074000C25FDE4F10E089910E94E5021F5F183002
:10075000D1F70F5F88E090E0E80EF91E90E1E9160E
:10076000F10411F78A2D8F5F80931B028D3059F4AD
:1007700010921B0283E0B81611F480E002C08B2DAA
:100780008F5F80931A02DF91CF911F910F91FF909D
:10079000EF90DF90CF90BF90AF909F900895F89426
:1007A00080E091E0909387008093860082EA8093B6
:1007B00080008AE1809381008FEF8093D10084E0F4
:1007C0008093720085E08093C10083ED90E0909368
:1007D00099008093980020E42093900089E0809312
:1007E000910090E190936A002DBB81E080936800B6
:1007F00090936B008BBB8BB1837D8BB98AB18C627C
:100800008AB985E38A95F1F78BB18C608BB98AE060
:100810008A95F1F781EA0E94F10283ED0E94F102CC
:1008200080E00E94F10288EC0E94F10280E40E94C4
:10083000F1028FEA0E94F1020E9415037894089554
:100840000E94CF030E94150360E080E00E94FD0239
:1008500060E080E00E94FD020E947F00C82F0E949D
:1008600071038C2F82958F700E94710360E081E08C
:100870000E94FD020E94C000C82F0E9471038C2FAD
:1008800082958F700E94710360E082E00E94FD02F9
:100890000E940101C82F0E9471038C2F82958F70D6
:1008A0000E9471032FEF83ED90E321508040904030
:0C08B000E1F700C00000CCCFF894FFCFAF
:1008BC0004000F002000370055007800A401FCFE56
:1008CC000606C636FEFC3F7F6E6360607F3F00000D
:1008DC0008FCFE0000000040607F7F6040000C0EB2
:1008EC0006068686FEFC7C7E6763616161600C0E89
:1008FC00868686C6FE7C0060616161733F1F80C086
:10090C00603018FCFE000103030303FFFF03FEFE2F
:10091C008686868686060061616161617F3FFCFE8A
:10092C008686868686043F7F616161617F3F06060D
:10093C00060686E67E1E0060781E070100007CFE1F
:10094C0086868686FE7C3E7F616161617F3E7CFE91
:10095C0086868686FEFC0061616161713F1FFCFE2C
:10096C0086868686FEFC7F7F010101017F7F06FE65
:10097C00FE8686C6FC78607F7F6161633F1EFCFE4D
:10098C00060606060E0C1F7F606060603010FEFECF
:10099C000606060EFCF87F7F606060303F1FFEFE8F
:1009AC008686868686867F7F616161616161FEFED7
:0E09BC008686868686867F7F01010101010105
:00000001FF
